{
  "_format": "hh-sol-artifact-1",
  "contractName": "PingSender",
  "sourceName": "Contracts/Sender.sol",
  "abi": [
    {
      "inputs": [
        {
          "internalType": "contract IPolygonZkEVMBridge",
          "name": "_polygonZkEVMBridge",
          "type": "address"
        }
      ],
      "stateMutability": "nonpayable",
      "type": "constructor"
    },
    {
      "anonymous": false,
      "inputs": [
        {
          "indexed": true,
          "internalType": "address",
          "name": "previousOwner",
          "type": "address"
        },
        {
          "indexed": true,
          "internalType": "address",
          "name": "newOwner",
          "type": "address"
        }
      ],
      "name": "OwnershipTransferred",
      "type": "event"
    },
    {
      "anonymous": false,
      "inputs": [
        {
          "indexed": false,
          "internalType": "uint256",
          "name": "pingValue",
          "type": "uint256"
        }
      ],
      "name": "PingMessage",
      "type": "event"
    },
    {
      "anonymous": false,
      "inputs": [
        {
          "indexed": false,
          "internalType": "address",
          "name": "newPingReceiver",
          "type": "address"
        }
      ],
      "name": "SetReceiver",
      "type": "event"
    },
    {
      "inputs": [
        {
          "internalType": "uint32",
          "name": "destinationNetwork",
          "type": "uint32"
        },
        {
          "internalType": "bool",
          "name": "forceUpdateGlobalExitRoot",
          "type": "bool"
        },
        {
          "internalType": "uint256",
          "name": "pingValue",
          "type": "uint256"
        }
      ],
      "name": "bridgePingMessage",
      "outputs": [],
      "stateMutability": "nonpayable",
      "type": "function"
    },
    {
      "inputs": [],
      "name": "owner",
      "outputs": [
        {
          "internalType": "address",
          "name": "",
          "type": "address"
        }
      ],
      "stateMutability": "view",
      "type": "function"
    },
    {
      "inputs": [],
      "name": "pingReceiver",
      "outputs": [
        {
          "internalType": "address",
          "name": "",
          "type": "address"
        }
      ],
      "stateMutability": "view",
      "type": "function"
    },
    {
      "inputs": [],
      "name": "polygonZkEVMBridge",
      "outputs": [
        {
          "internalType": "contract IPolygonZkEVMBridge",
          "name": "",
          "type": "address"
        }
      ],
      "stateMutability": "view",
      "type": "function"
    },
    {
      "inputs": [],
      "name": "renounceOwnership",
      "outputs": [],
      "stateMutability": "nonpayable",
      "type": "function"
    },
    {
      "inputs": [
        {
          "internalType": "address",
          "name": "newPingReceiver",
          "type": "address"
        }
      ],
      "name": "setReceiver",
      "outputs": [],
      "stateMutability": "nonpayable",
      "type": "function"
    },
    {
      "inputs": [
        {
          "internalType": "address",
          "name": "newOwner",
          "type": "address"
        }
      ],
      "name": "transferOwnership",
      "outputs": [],
      "stateMutability": "nonpayable",
      "type": "function"
    }
  ],
  "bytecode": "0x60a060405234801561001057600080fd5b50604051610bdf380380610bdf833981810160405281019061003291906101c9565b61004e61004361008860201b60201c565b61009060201b60201c565b8073ffffffffffffffffffffffffffffffffffffffff1660808173ffffffffffffffffffffffffffffffffffffffff1681525050506101f6565b600033905090565b60008060009054906101000a900473ffffffffffffffffffffffffffffffffffffffff169050816000806101000a81548173ffffffffffffffffffffffffffffffffffffffff021916908373ffffffffffffffffffffffffffffffffffffffff1602179055508173ffffffffffffffffffffffffffffffffffffffff168173ffffffffffffffffffffffffffffffffffffffff167f8be0079c531659141344cd1fd0a4f28419497f9722a3daafe3b4186f6b6457e060405160405180910390a35050565b600080fd5b600073ffffffffffffffffffffffffffffffffffffffff82169050919050565b600061018482610159565b9050919050565b600061019682610179565b9050919050565b6101a68161018b565b81146101b157600080fd5b50565b6000815190506101c38161019d565b92915050565b6000602082840312156101df576101de610154565b5b60006101ed848285016101b4565b91505092915050565b6080516109c76102186000396000818161013c015261024c01526109c76000f3fe608060405234801561001057600080fd5b506004361061007d5760003560e01c80638da5cb5b1161005b5780638da5cb5b146100c6578063e1fc1b28146100e4578063ea21481114610100578063f2fde38b1461011e5761007d565b80635d43792c14610082578063715018a6146100a0578063718da7ee146100aa575b600080fd5b61008a61013a565b60405161009791906105ac565b60405180910390f35b6100a861015e565b005b6100c460048036038101906100bf919061060a565b610172565b005b6100ce6101f5565b6040516100db9190610646565b60405180910390f35b6100fe60048036038101906100f9919061070b565b61021e565b005b61010861033a565b6040516101159190610646565b60405180910390f35b6101386004803603810190610133919061060a565b610360565b005b7f000000000000000000000000000000000000000000000000000000000000000081565b6101666103e3565b6101706000610461565b565b61017a6103e3565b80600160006101000a81548173ffffffffffffffffffffffffffffffffffffffff021916908373ffffffffffffffffffffffffffffffffffffffff1602179055507f62622c4fad9974e468211f4dabd68e0de4363f042d0a41bc270476f2291f5925816040516101ea9190610646565b60405180910390a150565b60008060009054906101000a900473ffffffffffffffffffffffffffffffffffffffff16905090565b6102266103e3565b600081604051602001610239919061076d565b60405160208183030381529060405290507f000000000000000000000000000000000000000000000000000000000000000073ffffffffffffffffffffffffffffffffffffffff1663240ff37885600160009054906101000a900473ffffffffffffffffffffffffffffffffffffffff1686856040518563ffffffff1660e01b81526004016102cb9493929190610836565b600060405180830381600087803b1580156102e557600080fd5b505af11580156102f9573d6000803e3d6000fd5b505050507fc4ff5a81a9fc8673ebe4995b6bfe6f6c7b7d82fa631c6d45213b108c9155f7948260405161032c919061076d565b60405180910390a150505050565b600160009054906101000a900473ffffffffffffffffffffffffffffffffffffffff1681565b6103686103e3565b600073ffffffffffffffffffffffffffffffffffffffff168173ffffffffffffffffffffffffffffffffffffffff16036103d7576040517f08c379a00000000000000000000000000000000000000000000000000000000081526004016103ce90610905565b60405180910390fd5b6103e081610461565b50565b6103eb610525565b73ffffffffffffffffffffffffffffffffffffffff166104096101f5565b73ffffffffffffffffffffffffffffffffffffffff161461045f576040517f08c379a000000000000000000000000000000000000000000000000000000000815260040161045690610971565b60405180910390fd5b565b60008060009054906101000a900473ffffffffffffffffffffffffffffffffffffffff169050816000806101000a81548173ffffffffffffffffffffffffffffffffffffffff021916908373ffffffffffffffffffffffffffffffffffffffff1602179055508173ffffffffffffffffffffffffffffffffffffffff168173ffffffffffffffffffffffffffffffffffffffff167f8be0079c531659141344cd1fd0a4f28419497f9722a3daafe3b4186f6b6457e060405160405180910390a35050565b600033905090565b600073ffffffffffffffffffffffffffffffffffffffff82169050919050565b6000819050919050565b600061057261056d6105688461052d565b61054d565b61052d565b9050919050565b600061058482610557565b9050919050565b600061059682610579565b9050919050565b6105a68161058b565b82525050565b60006020820190506105c1600083018461059d565b92915050565b600080fd5b60006105d78261052d565b9050919050565b6105e7816105cc565b81146105f257600080fd5b50565b600081359050610604816105de565b92915050565b6000602082840312156106205761061f6105c7565b5b600061062e848285016105f5565b91505092915050565b610640816105cc565b82525050565b600060208201905061065b6000830184610637565b92915050565b600063ffffffff82169050919050565b61067a81610661565b811461068557600080fd5b50565b60008135905061069781610671565b92915050565b60008115159050919050565b6106b28161069d565b81146106bd57600080fd5b50565b6000813590506106cf816106a9565b92915050565b6000819050919050565b6106e8816106d5565b81146106f357600080fd5b50565b600081359050610705816106df565b92915050565b600080600060608486031215610724576107236105c7565b5b600061073286828701610688565b9350506020610743868287016106c0565b9250506040610754868287016106f6565b9150509250925092565b610767816106d5565b82525050565b6000602082019050610782600083018461075e565b92915050565b61079181610661565b82525050565b6107a08161069d565b82525050565b600081519050919050565b600082825260208201905092915050565b60005b838110156107e05780820151818401526020810190506107c5565b60008484015250505050565b6000601f19601f8301169050919050565b6000610808826107a6565b61081281856107b1565b93506108228185602086016107c2565b61082b816107ec565b840191505092915050565b600060808201905061084b6000830187610788565b6108586020830186610637565b6108656040830185610797565b818103606083015261087781846107fd565b905095945050505050565b600082825260208201905092915050565b7f4f776e61626c653a206e6577206f776e657220697320746865207a65726f206160008201527f6464726573730000000000000000000000000000000000000000000000000000602082015250565b60006108ef602683610882565b91506108fa82610893565b604082019050919050565b6000602082019050818103600083015261091e816108e2565b9050919050565b7f4f776e61626c653a2063616c6c6572206973206e6f7420746865206f776e6572600082015250565b600061095b602083610882565b915061096682610925565b602082019050919050565b6000602082019050818103600083015261098a8161094e565b905091905056fea2646970667358221220c3cc536df9ef5e8e689101996fe9644a656c08900b665cd763e17420d74ed5c764736f6c63430008110033",
  "linkReferences": {},
  "deployedLinkReferences": {}
}